{
  "contractName": "Crowdfunding",
  "abi": [
    {
      "inputs": [
        {
          "internalType": "string",
          "name": "",
          "type": "string"
        }
      ],
      "name": "campaignMongoId",
      "outputs": [
        {
          "internalType": "uint256",
          "name": "",
          "type": "uint256"
        }
      ],
      "stateMutability": "view",
      "type": "function",
      "constant": true
    },
    {
      "inputs": [
        {
          "internalType": "uint256",
          "name": "",
          "type": "uint256"
        }
      ],
      "name": "campaigns",
      "outputs": [
        {
          "internalType": "address payable",
          "name": "recipient",
          "type": "address"
        },
        {
          "internalType": "uint256",
          "name": "targetAmount",
          "type": "uint256"
        },
        {
          "internalType": "uint256",
          "name": "deadline",
          "type": "uint256"
        },
        {
          "internalType": "uint256",
          "name": "totalRaised",
          "type": "uint256"
        },
        {
          "internalType": "bool",
          "name": "completed",
          "type": "bool"
        },
        {
          "internalType": "uint256",
          "name": "numberOfContributors",
          "type": "uint256"
        }
      ],
      "stateMutability": "view",
      "type": "function",
      "constant": true
    },
    {
      "inputs": [],
      "name": "nextCampaignId",
      "outputs": [
        {
          "internalType": "uint256",
          "name": "",
          "type": "uint256"
        }
      ],
      "stateMutability": "view",
      "type": "function",
      "constant": true
    },
    {
      "inputs": [
        {
          "internalType": "string",
          "name": "mongoId",
          "type": "string"
        },
        {
          "internalType": "address payable",
          "name": "_recipient",
          "type": "address"
        },
        {
          "internalType": "uint256",
          "name": "_targetAmount",
          "type": "uint256"
        },
        {
          "internalType": "uint256",
          "name": "_deadline",
          "type": "uint256"
        },
        {
          "internalType": "uint256[]",
          "name": "milestoneDeadlines",
          "type": "uint256[]"
        },
        {
          "internalType": "uint256[]",
          "name": "milestoneCompletionPercentages",
          "type": "uint256[]"
        }
      ],
      "name": "createCampaign",
      "outputs": [],
      "stateMutability": "payable",
      "type": "function",
      "payable": true
    },
    {
      "inputs": [
        {
          "internalType": "string",
          "name": "mongoId",
          "type": "string"
        }
      ],
      "name": "contributeToCampaign",
      "outputs": [],
      "stateMutability": "payable",
      "type": "function",
      "payable": true
    },
    {
      "inputs": [
        {
          "internalType": "string",
          "name": "mongoId",
          "type": "string"
        },
        {
          "internalType": "address",
          "name": "senderAddress",
          "type": "address"
        }
      ],
      "name": "getContributionAmount",
      "outputs": [
        {
          "internalType": "uint256",
          "name": "",
          "type": "uint256"
        }
      ],
      "stateMutability": "view",
      "type": "function",
      "constant": true
    },
    {
      "inputs": [
        {
          "internalType": "string",
          "name": "mongoId",
          "type": "string"
        }
      ],
      "name": "vote",
      "outputs": [],
      "stateMutability": "nonpayable",
      "type": "function"
    },
    {
      "inputs": [
        {
          "internalType": "string",
          "name": "mongoId",
          "type": "string"
        }
      ],
      "name": "isMajorityInFavor",
      "outputs": [
        {
          "internalType": "bool",
          "name": "",
          "type": "bool"
        }
      ],
      "stateMutability": "view",
      "type": "function",
      "constant": true
    },
    {
      "inputs": [
        {
          "internalType": "string",
          "name": "mongoId",
          "type": "string"
        }
      ],
      "name": "finalizeMilestoneAndDisburseFunds",
      "outputs": [],
      "stateMutability": "payable",
      "type": "function",
      "payable": true
    },
    {
      "inputs": [
        {
          "internalType": "string",
          "name": "mongoId",
          "type": "string"
        }
      ],
      "name": "getCampaignDetails",
      "outputs": [
        {
          "internalType": "address payable",
          "name": "recipient",
          "type": "address"
        },
        {
          "internalType": "uint256",
          "name": "targetAmount",
          "type": "uint256"
        },
        {
          "internalType": "uint256",
          "name": "deadline",
          "type": "uint256"
        },
        {
          "internalType": "uint256",
          "name": "totalRaised",
          "type": "uint256"
        },
        {
          "internalType": "bool",
          "name": "completed",
          "type": "bool"
        },
        {
          "internalType": "uint256",
          "name": "numberOfContributors",
          "type": "uint256"
        },
        {
          "components": [
            {
              "internalType": "uint256",
              "name": "deadline",
              "type": "uint256"
            },
            {
              "internalType": "uint256",
              "name": "completionPercentage",
              "type": "uint256"
            },
            {
              "internalType": "bool",
              "name": "reached",
              "type": "bool"
            }
          ],
          "internalType": "struct Crowdfunding.Milestone[]",
          "name": "milestones",
          "type": "tuple[]"
        }
      ],
      "stateMutability": "view",
      "type": "function",
      "constant": true
    }
  ],
  "bytecode": "0x608060405234801561001057600080fd5b50611e80806100206000396000f3fe6080604052600436106100915760003560e01c806378f5a8e01161005957806378f5a8e01461018a5780637903a756146101a657806391b8ebe4146101d1578063999a340714610214578063fc36e15b1461025157610091565b80630c8209e214610096578063141961bc146100b257806325405ef5146100f457806339f8bd671461013157806342d6f3911461014d575b600080fd5b6100b060048036038101906100ab91906111c6565b61027a565b005b3480156100be57600080fd5b506100d960048036038101906100d49190611245565b6104ae565b6040516100eb969594939291906112dd565b60405180910390f35b34801561010057600080fd5b5061011b600480360381019061011691906111c6565b610517565b604051610128919061133e565b60405180910390f35b61014b6004803603810190610146919061144d565b610668565b005b34801561015957600080fd5b50610174600480360381019061016f91906111c6565b6108e0565b604051610181919061152e565b60405180910390f35b6101a4600480360381019061019f91906111c6565b61090e565b005b3480156101b257600080fd5b506101bb610cb3565b6040516101c8919061152e565b60405180910390f35b3480156101dd57600080fd5b506101f860048036038101906101f391906111c6565b610cb9565b60405161020b9796959493929190611658565b60405180910390f35b34801561022057600080fd5b5061023b6004803603810190610236919061170c565b610def565b604051610248919061152e565b60405180910390f35b34801561025d57600080fd5b50610278600480360381019061027391906111c6565b610e6f565b005b600060018260405161028c91906117e2565b90815260200160405180910390205490506000808281526020019081526020016000206002015442106102f4576040517f08c379a00000000000000000000000000000000000000000000000000000000081526004016102eb90611856565b60405180910390fd5b60008082815260200190815260200160002060040160009054906101000a900460ff1615610357576040517f08c379a000000000000000000000000000000000000000000000000000000000815260040161034e906118e8565b60405180910390fd5b6000806000838152602001908152602001600020905060008160050160003373ffffffffffffffffffffffffffffffffffffffff1673ffffffffffffffffffffffffffffffffffffffff16815260200190815260200160002054036104365780600601339080600181540180825580915050600190039060005260206000200160009091909190916101000a81548173ffffffffffffffffffffffffffffffffffffffff021916908373ffffffffffffffffffffffffffffffffffffffff16021790555080600801600081548092919061043090611937565b91905055505b348160050160003373ffffffffffffffffffffffffffffffffffffffff1673ffffffffffffffffffffffffffffffffffffffff1681526020019081526020016000206000828254610487919061197f565b92505081905550348160030160008282546104a2919061197f565b92505081905550505050565b60006020528060005260406000206000915090508060000160009054906101000a900473ffffffffffffffffffffffffffffffffffffffff16908060010154908060020154908060030154908060040160009054906101000a900460ff16908060080154905086565b60008060018360405161052a91906117e2565b90815260200160405180910390205490506000805b6000808481526020019081526020016000206008015481101561063a5760008060008581526020019081526020016000206006018281548110610585576105846119d5565b5b9060005260206000200160009054906101000a900473ffffffffffffffffffffffffffffffffffffffff16905060008085815260200190815260200160002060070160008273ffffffffffffffffffffffffffffffffffffffff1673ffffffffffffffffffffffffffffffffffffffff16815260200190815260200160002060009054906101000a900460ff161561062657828061062290611937565b9350505b50808061063290611937565b91505061053f565b506000808381526020019081526020016000206008015460028261065e9190611a04565b1192505050919050565b600084116106ab576040517f08c379a00000000000000000000000000000000000000000000000000000000081526004016106a290611ad0565b60405180910390fd5b4283116106ed576040517f08c379a00000000000000000000000000000000000000000000000000000000081526004016106e490611b3c565b60405180910390fd5b600080600060025481526020019081526020016000209050858160000160006101000a81548173ffffffffffffffffffffffffffffffffffffffff021916908373ffffffffffffffffffffffffffffffffffffffff1602179055508481600101819055508381600201819055506000816003018190555060008160040160006101000a81548160ff02191690831515021790555081518351146107c5576040517f08c379a00000000000000000000000000000000000000000000000000000000081526004016107bc90611ba8565b60405180910390fd5b60005b8351811015610899578160090160405180606001604052808684815181106107f3576107f26119d5565b5b60200260200101518152602001858481518110610813576108126119d5565b5b60200260200101518152602001600015158152509080600181540180825580915050600190039060005260206000209060030201600090919091909150600082015181600001556020820151816001015560408201518160020160006101000a81548160ff0219169083151502179055505050808061089190611937565b9150506107c8565b506002546001886040516108ad91906117e2565b908152602001604051809103902081905550600260008154809291906108d290611937565b919050555050505050505050565b6001818051602081018201805184825260208301602085012081835280955050505050506000915090505481565b600060018260405161092091906117e2565b908152602001604051809103902054905060008082815260200190815260200160002060020154421015610989576040517f08c379a000000000000000000000000000000000000000000000000000000000815260040161098090611c3a565b60405180910390fd5b600080600083815260200190815260200160002090508060040160009054906101000a900460ff16156109f1576040517f08c379a00000000000000000000000000000000000000000000000000000000081526004016109e890611ca6565b60405180910390fd5b600081600101549050600082600301549050818110610b785760005b8360090180549050811015610b72576000846009018281548110610a3457610a336119d5565b5b906000526020600020906003020190508060020160009054906101000a900460ff16158015610a67575080600001544210155b15610b5e5760018160020160006101000a81548160ff021916908315150217905550610a9287610517565b610ad1576040517f08c379a0000000000000000000000000000000000000000000000000000000008152600401610ac890611d38565b60405180910390fd5b60006064826001015486610ae59190611a04565b610aef9190611d87565b90508560000160009054906101000a900473ffffffffffffffffffffffffffffffffffffffff1673ffffffffffffffffffffffffffffffffffffffff166108fc829081150290604051600060405180830381858888f19350505050158015610b5b573d6000803e3d6000fd5b50505b508080610b6a90611937565b915050610a0d565b50610c8f565b60005b8360060180549050811015610c8d576000846006018281548110610ba257610ba16119d5565b5b9060005260206000200160009054906101000a900473ffffffffffffffffffffffffffffffffffffffff16905060008560050160008373ffffffffffffffffffffffffffffffffffffffff1673ffffffffffffffffffffffffffffffffffffffff1681526020019081526020016000205490506000858583610c249190611a04565b610c2e9190611d87565b90508273ffffffffffffffffffffffffffffffffffffffff166108fc829081150290604051600060405180830381858888f19350505050158015610c76573d6000803e3d6000fd5b505050508080610c8590611937565b915050610b7b565b505b60018360040160006101000a81548160ff0219169083151502179055505050505050565b60025481565b60008060008060008060606000600189604051610cd691906117e2565b9081526020016040518091039020549050600080600083815260200190815260200160002090508060000160009054906101000a900473ffffffffffffffffffffffffffffffffffffffff168160010154826002015483600301548460040160009054906101000a900460ff1685600801548660090180805480602002602001604051908101604052809291908181526020016000905b82821015610dce578382906000526020600020906003020160405180606001604052908160008201548152602001600182015481526020016002820160009054906101000a900460ff16151515158152505081526020019060010190610d6d565b50505050905098509850985098509850985098505050919395979092949650565b600080600184604051610e0291906117e2565b908152602001604051809103902054905060008082815260200190815260200160002060050160008473ffffffffffffffffffffffffffffffffffffffff1673ffffffffffffffffffffffffffffffffffffffff1681526020019081526020016000205491505092915050565b6000600182604051610e8191906117e2565b9081526020016040518091039020549050600080600083815260200190815260200160002060050160003373ffffffffffffffffffffffffffffffffffffffff1673ffffffffffffffffffffffffffffffffffffffff1681526020019081526020016000205411610f27576040517f08c379a0000000000000000000000000000000000000000000000000000000008152600401610f1e90611e2a565b60405180910390fd5b60008082815260200190815260200160002060070160003373ffffffffffffffffffffffffffffffffffffffff1673ffffffffffffffffffffffffffffffffffffffff16815260200190815260200160002060009054906101000a900460ff1615610ffc57600080600083815260200190815260200160002060070160003373ffffffffffffffffffffffffffffffffffffffff1673ffffffffffffffffffffffffffffffffffffffff16815260200190815260200160002060006101000a81548160ff021916908315150217905550611068565b600160008083815260200190815260200160002060070160003373ffffffffffffffffffffffffffffffffffffffff1673ffffffffffffffffffffffffffffffffffffffff16815260200190815260200160002060006101000a81548160ff0219169083151502179055505b5050565b6000604051905090565b600080fd5b600080fd5b600080fd5b600080fd5b6000601f19601f8301169050919050565b7f4e487b7100000000000000000000000000000000000000000000000000000000600052604160045260246000fd5b6110d38261108a565b810181811067ffffffffffffffff821117156110f2576110f161109b565b5b80604052505050565b600061110561106c565b905061111182826110ca565b919050565b600067ffffffffffffffff8211156111315761113061109b565b5b61113a8261108a565b9050602081019050919050565b82818337600083830152505050565b600061116961116484611116565b6110fb565b90508281526020810184848401111561118557611184611085565b5b611190848285611147565b509392505050565b600082601f8301126111ad576111ac611080565b5b81356111bd848260208601611156565b91505092915050565b6000602082840312156111dc576111db611076565b5b600082013567ffffffffffffffff8111156111fa576111f961107b565b5b61120684828501611198565b91505092915050565b6000819050919050565b6112228161120f565b811461122d57600080fd5b50565b60008135905061123f81611219565b92915050565b60006020828403121561125b5761125a611076565b5b600061126984828501611230565b91505092915050565b600073ffffffffffffffffffffffffffffffffffffffff82169050919050565b600061129d82611272565b9050919050565b6112ad81611292565b82525050565b6112bc8161120f565b82525050565b60008115159050919050565b6112d7816112c2565b82525050565b600060c0820190506112f260008301896112a4565b6112ff60208301886112b3565b61130c60408301876112b3565b61131960608301866112b3565b61132660808301856112ce565b61133360a08301846112b3565b979650505050505050565b600060208201905061135360008301846112ce565b92915050565b61136281611292565b811461136d57600080fd5b50565b60008135905061137f81611359565b92915050565b600067ffffffffffffffff8211156113a05761139f61109b565b5b602082029050602081019050919050565b600080fd5b60006113c96113c484611385565b6110fb565b905080838252602082019050602084028301858111156113ec576113eb6113b1565b5b835b8181101561141557806114018882611230565b8452602084019350506020810190506113ee565b5050509392505050565b600082601f83011261143457611433611080565b5b81356114448482602086016113b6565b91505092915050565b60008060008060008060c0878903121561146a57611469611076565b5b600087013567ffffffffffffffff8111156114885761148761107b565b5b61149489828a01611198565b96505060206114a589828a01611370565b95505060406114b689828a01611230565b94505060606114c789828a01611230565b935050608087013567ffffffffffffffff8111156114e8576114e761107b565b5b6114f489828a0161141f565b92505060a087013567ffffffffffffffff8111156115155761151461107b565b5b61152189828a0161141f565b9150509295509295509295565b600060208201905061154360008301846112b3565b92915050565b600081519050919050565b600082825260208201905092915050565b6000819050602082019050919050565b61157e8161120f565b82525050565b61158d816112c2565b82525050565b6060820160008201516115a96000850182611575565b5060208201516115bc6020850182611575565b5060408201516115cf6040850182611584565b50505050565b60006115e18383611593565b60608301905092915050565b6000602082019050919050565b600061160582611549565b61160f8185611554565b935061161a83611565565b8060005b8381101561164b57815161163288826115d5565b975061163d836115ed565b92505060018101905061161e565b5085935050505092915050565b600060e08201905061166d600083018a6112a4565b61167a60208301896112b3565b61168760408301886112b3565b61169460608301876112b3565b6116a160808301866112ce565b6116ae60a08301856112b3565b81810360c08301526116c081846115fa565b905098975050505050505050565b60006116d982611272565b9050919050565b6116e9816116ce565b81146116f457600080fd5b50565b600081359050611706816116e0565b92915050565b6000806040838503121561172357611722611076565b5b600083013567ffffffffffffffff8111156117415761174061107b565b5b61174d85828601611198565b925050602061175e858286016116f7565b9150509250929050565b600081519050919050565b600081905092915050565b60005b8381101561179c578082015181840152602081019050611781565b838111156117ab576000848401525b50505050565b60006117bc82611768565b6117c68185611773565b93506117d681856020860161177e565b80840191505092915050565b60006117ee82846117b1565b915081905092915050565b600082825260208201905092915050565b7f436f6e747269627574696f6e20706572696f642068617320656e646564000000600082015250565b6000611840601d836117f9565b915061184b8261180a565b602082019050919050565b6000602082019050818103600083015261186f81611833565b9050919050565b7f43616d706169676e2068617320616c7265616479206265656e20636f6d706c6560008201527f7465640000000000000000000000000000000000000000000000000000000000602082015250565b60006118d26023836117f9565b91506118dd82611876565b604082019050919050565b60006020820190508181036000830152611901816118c5565b9050919050565b7f4e487b7100000000000000000000000000000000000000000000000000000000600052601160045260246000fd5b60006119428261120f565b91507fffffffffffffffffffffffffffffffffffffffffffffffffffffffffffffffff820361197457611973611908565b5b600182019050919050565b600061198a8261120f565b91506119958361120f565b9250827fffffffffffffffffffffffffffffffffffffffffffffffffffffffffffffffff038211156119ca576119c9611908565b5b828201905092915050565b7f4e487b7100000000000000000000000000000000000000000000000000000000600052603260045260246000fd5b6000611a0f8261120f565b9150611a1a8361120f565b9250817fffffffffffffffffffffffffffffffffffffffffffffffffffffffffffffffff0483118215151615611a5357611a52611908565b5b828202905092915050565b7f54617267657420616d6f756e74206d757374206265206772656174657220746860008201527f616e207a65726f00000000000000000000000000000000000000000000000000602082015250565b6000611aba6027836117f9565b9150611ac582611a5e565b604082019050919050565b60006020820190508181036000830152611ae981611aad565b9050919050565b7f446561646c696e65206d75737420626520696e20746865206675747572650000600082015250565b6000611b26601e836117f9565b9150611b3182611af0565b602082019050919050565b60006020820190508181036000830152611b5581611b19565b9050919050565b7f4d69736d6174636820696e206d696c6573746f6e652064617461000000000000600082015250565b6000611b92601a836117f9565b9150611b9d82611b5c565b602082019050919050565b60006020820190508181036000830152611bc181611b85565b9050919050565b7f446561646c696e6520686173206e6f74206265656e207265616368656420796560008201527f7400000000000000000000000000000000000000000000000000000000000000602082015250565b6000611c246021836117f9565b9150611c2f82611bc8565b604082019050919050565b60006020820190508181036000830152611c5381611c17565b9050919050565b7f43616d706169676e20616c726561647920636f6d706c65746564000000000000600082015250565b6000611c90601a836117f9565b9150611c9b82611c5a565b602082019050919050565b60006020820190508181036000830152611cbf81611c83565b9050919050565b7f4d616a6f72697479206f662074686520636f6e7472696275746f72732061726560008201527f20756e6861707079207769746820746869732063616d706169676e0000000000602082015250565b6000611d22603b836117f9565b9150611d2d82611cc6565b604082019050919050565b60006020820190508181036000830152611d5181611d15565b9050919050565b7f4e487b7100000000000000000000000000000000000000000000000000000000600052601260045260246000fd5b6000611d928261120f565b9150611d9d8361120f565b925082611dad57611dac611d58565b5b828204905092915050565b7f596f75206d757374206265206120636f6e7472696275746f7220746f20766f7460008201527f6500000000000000000000000000000000000000000000000000000000000000602082015250565b6000611e146021836117f9565b9150611e1f82611db8565b604082019050919050565b60006020820190508181036000830152611e4381611e07565b905091905056fea264697066735822122057ef343826430007a19b0d503670cd26e5a3e81b302da571d7893232cf6677cb64736f6c634300080d0033",
  "immutableReferences": {},
  "source": "// SPDX-License-Identifier: MIT\npragma solidity ^0.8.0;\n\ncontract Crowdfunding {\n  struct Milestone {\n    uint256 deadline;\n    uint256 completionPercentage;\n    bool reached;\n  }\n\n  struct Campaign {\n    address payable recipient;\n    uint256 targetAmount;\n    uint256 deadline;\n    uint256 totalRaised;\n    bool completed;\n    mapping(address => uint256) contributions;\n    address[] contributorAddresses;\n    mapping(address => bool) voted;\n    uint256 numberOfContributors;\n    Milestone[] milestones;\n  }\n\n  mapping(uint256 => Campaign) public campaigns;\n  mapping(string => uint256) public campaignMongoId;\n  uint256 public nextCampaignId;\n\n  function createCampaign(\n    string memory mongoId,\n    address payable _recipient,\n    uint256 _targetAmount,\n    uint256 _deadline,\n    uint256[] memory milestoneDeadlines,\n    uint256[] memory milestoneCompletionPercentages\n  ) public payable {\n    require(_targetAmount > 0, \"Target amount must be greater than zero\");\n    require(_deadline > block.timestamp, \"Deadline must be in the future\");\n\n    Campaign storage currentCampaign = campaigns[nextCampaignId];\n    currentCampaign.recipient = _recipient;\n    currentCampaign.targetAmount = _targetAmount;\n    currentCampaign.deadline = _deadline;\n    currentCampaign.totalRaised = 0;\n    currentCampaign.completed = false;\n\n    require(\n      milestoneDeadlines.length == milestoneCompletionPercentages.length,\n      \"Mismatch in milestone data\"\n    );\n\n    for (uint256 i = 0; i < milestoneDeadlines.length; i++) {\n      currentCampaign.milestones.push(\n        Milestone({\n          deadline: milestoneDeadlines[i],\n          completionPercentage: milestoneCompletionPercentages[i],\n          reached: false\n        })\n      );\n    }\n\n    campaignMongoId[mongoId] = nextCampaignId;\n    nextCampaignId++;\n  }\n\n  function contributeToCampaign(string memory mongoId) public payable {\n    uint256 campaignId = campaignMongoId[mongoId];\n    require(\n      block.timestamp < campaigns[campaignId].deadline,\n      \"Contribution period has ended\"\n    );\n\n    require(\n      !campaigns[campaignId].completed,\n      \"Campaign has already been completed\"\n    );\n\n    Campaign storage currentCampaign = campaigns[campaignId];\n    if (currentCampaign.contributions[msg.sender] == 0) {\n      currentCampaign.contributorAddresses.push(msg.sender);\n      currentCampaign.numberOfContributors++;\n    }\n    currentCampaign.contributions[msg.sender] += msg.value;\n    currentCampaign.totalRaised += msg.value;\n  }\n\n  function getContributionAmount(\n    string memory mongoId,\n    address senderAddress\n  ) public view returns (uint256) {\n    uint256 campaignId = campaignMongoId[mongoId];\n    return campaigns[campaignId].contributions[senderAddress];\n  }\n\n  function vote(string memory mongoId) public {\n    uint256 campaignId = campaignMongoId[mongoId];\n    require(\n      campaigns[campaignId].contributions[msg.sender] > 0,\n      \"You must be a contributor to vote\"\n    );\n\n    if (campaigns[campaignId].voted[msg.sender]) {\n      campaigns[campaignId].voted[msg.sender] = false;\n    } else {\n      campaigns[campaignId].voted[msg.sender] = true;\n    }\n  }\n\n  function isMajorityInFavor(string memory mongoId) public view returns (bool) {\n    uint256 campaignId = campaignMongoId[mongoId];\n    uint256 votedContributorsCount = 0;\n\n    for (uint256 i = 0; i < campaigns[campaignId].numberOfContributors; i++) {\n      address contributor = campaigns[campaignId].contributorAddresses[i];\n      if (campaigns[campaignId].voted[contributor]) {\n        votedContributorsCount++;\n      }\n    }\n\n    return (votedContributorsCount * 2 >\n      campaigns[campaignId].numberOfContributors);\n  }\n\n  function finalizeMilestoneAndDisburseFunds(\n    string memory mongoId\n  ) public payable {\n    uint256 campaignId = campaignMongoId[mongoId];\n    require(\n      block.timestamp >= campaigns[campaignId].deadline,\n      \"Deadline has not been reached yet\"\n    );\n\n    Campaign storage currentCampaign = campaigns[campaignId];\n    require(!currentCampaign.completed, \"Campaign already completed\");\n\n    uint256 goalAmount = currentCampaign.targetAmount;\n    uint256 totalRaised = currentCampaign.totalRaised;\n\n    if (totalRaised >= goalAmount) {\n      for (uint256 i = 0; i < currentCampaign.milestones.length; i++) {\n        Milestone storage milestone = currentCampaign.milestones[i];\n        if (!milestone.reached && block.timestamp >= milestone.deadline) {\n          milestone.reached = true;\n          require(\n            isMajorityInFavor(mongoId),\n            \"Majority of the contributors are unhappy with this campaign\"\n          );\n          uint256 amountToTransfer = (goalAmount *\n            milestone.completionPercentage) / 100;\n          currentCampaign.recipient.transfer(amountToTransfer);\n        }\n      }\n    } else {\n      for (\n        uint256 i = 0;\n        i < currentCampaign.contributorAddresses.length;\n        i++\n      ) {\n        address contributor = currentCampaign.contributorAddresses[i];\n        uint256 contribution = currentCampaign.contributions[contributor];\n        uint256 refundAmount = (contribution * totalRaised) / goalAmount;\n        payable(contributor).transfer(refundAmount);\n      }\n    }\n\n    currentCampaign.completed = true;\n  }\n\n  function getCampaignDetails(\n    string memory mongoId\n  )\n    public\n    view\n    returns (\n      address payable recipient,\n      uint256 targetAmount,\n      uint256 deadline,\n      uint256 totalRaised,\n      bool completed,\n      uint256 numberOfContributors,\n      Milestone[] memory milestones\n    )\n  {\n    uint256 campaignId = campaignMongoId[mongoId];\n\n    Campaign storage currentCampaign = campaigns[campaignId];\n    return (\n      currentCampaign.recipient,\n      currentCampaign.targetAmount,\n      currentCampaign.deadline,\n      currentCampaign.totalRaised,\n      currentCampaign.completed,\n      currentCampaign.numberOfContributors,\n      currentCampaign.milestones\n    );\n  }\n}\n",
  "sourcePath": "/home/alvin/Projects/trustfunds/repo/trustfunds-api/web3-trustfunds/contracts/Crowdfunding.sol",
  "compiler": {
    "name": "solc",
    "version": "0.8.13+commit.abaa5c0e.Emscripten.clang"
  },
  "schemaVersion": "3.4.16",
  "updatedAt": "2024-04-19T15:50:51.823Z",
  "networkType": "ethereum",
  "devdoc": {
    "kind": "dev",
    "methods": {},
    "version": 1
  },
  "userdoc": {
    "kind": "user",
    "methods": {},
    "version": 1
  }
}