{
  "contractName": "Crowdfunding",
  "abi": [
    {
      "inputs": [
        {
          "internalType": "uint256",
          "name": "_target",
          "type": "uint256"
        },
        {
          "internalType": "uint256",
          "name": "_deadline",
          "type": "uint256"
        }
      ],
      "stateMutability": "nonpayable",
      "type": "constructor"
    },
    {
      "inputs": [
        {
          "internalType": "address",
          "name": "",
          "type": "address"
        }
      ],
      "name": "contributors",
      "outputs": [
        {
          "internalType": "uint256",
          "name": "",
          "type": "uint256"
        }
      ],
      "stateMutability": "view",
      "type": "function",
      "constant": true
    },
    {
      "inputs": [],
      "name": "deadline",
      "outputs": [
        {
          "internalType": "uint256",
          "name": "",
          "type": "uint256"
        }
      ],
      "stateMutability": "view",
      "type": "function",
      "constant": true
    },
    {
      "inputs": [],
      "name": "manager",
      "outputs": [
        {
          "internalType": "address",
          "name": "",
          "type": "address"
        }
      ],
      "stateMutability": "view",
      "type": "function",
      "constant": true
    },
    {
      "inputs": [],
      "name": "minContribution",
      "outputs": [
        {
          "internalType": "uint256",
          "name": "",
          "type": "uint256"
        }
      ],
      "stateMutability": "view",
      "type": "function",
      "constant": true
    },
    {
      "inputs": [],
      "name": "noOfContributors",
      "outputs": [
        {
          "internalType": "uint256",
          "name": "",
          "type": "uint256"
        }
      ],
      "stateMutability": "view",
      "type": "function",
      "constant": true
    },
    {
      "inputs": [],
      "name": "noOfRequests",
      "outputs": [
        {
          "internalType": "uint256",
          "name": "",
          "type": "uint256"
        }
      ],
      "stateMutability": "view",
      "type": "function",
      "constant": true
    },
    {
      "inputs": [],
      "name": "raisedAmount",
      "outputs": [
        {
          "internalType": "uint256",
          "name": "",
          "type": "uint256"
        }
      ],
      "stateMutability": "view",
      "type": "function",
      "constant": true
    },
    {
      "inputs": [
        {
          "internalType": "uint256",
          "name": "",
          "type": "uint256"
        }
      ],
      "name": "requests",
      "outputs": [
        {
          "internalType": "string",
          "name": "description",
          "type": "string"
        },
        {
          "internalType": "address payable",
          "name": "recipient",
          "type": "address"
        },
        {
          "internalType": "uint256",
          "name": "value",
          "type": "uint256"
        },
        {
          "internalType": "bool",
          "name": "completed",
          "type": "bool"
        },
        {
          "internalType": "uint256",
          "name": "noOfVoters",
          "type": "uint256"
        }
      ],
      "stateMutability": "view",
      "type": "function",
      "constant": true
    },
    {
      "inputs": [],
      "name": "target",
      "outputs": [
        {
          "internalType": "uint256",
          "name": "",
          "type": "uint256"
        }
      ],
      "stateMutability": "view",
      "type": "function",
      "constant": true
    },
    {
      "inputs": [
        {
          "internalType": "string",
          "name": "_description",
          "type": "string"
        },
        {
          "internalType": "address payable",
          "name": "_recipient",
          "type": "address"
        },
        {
          "internalType": "uint256",
          "name": "_value",
          "type": "uint256"
        }
      ],
      "name": "createRequests",
      "outputs": [],
      "stateMutability": "nonpayable",
      "type": "function"
    },
    {
      "inputs": [],
      "name": "contribution",
      "outputs": [],
      "stateMutability": "payable",
      "type": "function",
      "payable": true
    },
    {
      "inputs": [],
      "name": "getContractBalance",
      "outputs": [
        {
          "internalType": "uint256",
          "name": "",
          "type": "uint256"
        }
      ],
      "stateMutability": "view",
      "type": "function",
      "constant": true
    },
    {
      "inputs": [],
      "name": "refund",
      "outputs": [],
      "stateMutability": "nonpayable",
      "type": "function"
    },
    {
      "inputs": [
        {
          "internalType": "uint256",
          "name": "_requestNo",
          "type": "uint256"
        }
      ],
      "name": "voteRequest",
      "outputs": [],
      "stateMutability": "nonpayable",
      "type": "function"
    },
    {
      "inputs": [
        {
          "internalType": "uint256",
          "name": "_requestNo",
          "type": "uint256"
        }
      ],
      "name": "makePayment",
      "outputs": [],
      "stateMutability": "nonpayable",
      "type": "function"
    }
  ],
  "bytecode": "0x60806040523480156200001157600080fd5b5060405162001a5a38038062001a5a8339818101604052810190620000379190620000e3565b8160038190555080426200004c919062000159565b600681905550606460088190555033600260006101000a81548173ffffffffffffffffffffffffffffffffffffffff021916908373ffffffffffffffffffffffffffffffffffffffff1602179055505050620001b6565b600080fd5b6000819050919050565b620000bd81620000a8565b8114620000c957600080fd5b50565b600081519050620000dd81620000b2565b92915050565b60008060408385031215620000fd57620000fc620000a3565b5b60006200010d85828601620000cc565b92505060206200012085828601620000cc565b9150509250929050565b7f4e487b7100000000000000000000000000000000000000000000000000000000600052601160045260246000fd5b60006200016682620000a8565b91506200017383620000a8565b9250827fffffffffffffffffffffffffffffffffffffffffffffffffffffffffffffffff03821115620001ab57620001aa6200012a565b5b828201905092915050565b61189480620001c66000396000f3fe6080604052600436106100e85760003560e01c80635114cb521161008a578063aaffadf311610059578063aaffadf3146102b3578063c1f11b4c146102de578063c59ee1dc14610309578063d4b8399214610334576100e8565b80635114cb5214610207578063590e1ae3146102305780636f9fb98a1461024757806381d12c5814610272576100e8565b8063481c6a75116100c6578063481c6a751461017e5780634cb6f4a5146101a95780634e260f6f146101d257806350520b1f146101fd576100e8565b80631f6d4942146100ed57806329dcb0cf1461012a5780633eb7647b14610155575b600080fd5b3480156100f957600080fd5b50610114600480360381019061010f9190610ea3565b61035f565b6040516101219190610ee9565b60405180910390f35b34801561013657600080fd5b5061013f610377565b60405161014c9190610ee9565b60405180910390f35b34801561016157600080fd5b5061017c60048036038101906101779190610fd3565b61037d565b005b34801561018a57600080fd5b506101936104cc565b6040516101a09190611056565b60405180910390f35b3480156101b557600080fd5b506101d060048036038101906101cb9190611071565b6104f2565b005b3480156101de57600080fd5b506101e76106db565b6040516101f49190610ee9565b60405180910390f35b6102056106e1565b005b34801561021357600080fd5b5061022e60048036038101906102299190611071565b610839565b005b34801561023c57600080fd5b50610245610aee565b005b34801561025357600080fd5b5061025c610c8d565b6040516102699190610ee9565b60405180910390f35b34801561027e57600080fd5b5061029960048036038101906102949190611071565b610c95565b6040516102aa959493929190611161565b60405180910390f35b3480156102bf57600080fd5b506102c8610d80565b6040516102d59190610ee9565b60405180910390f35b3480156102ea57600080fd5b506102f3610d86565b6040516103009190610ee9565b60405180910390f35b34801561031557600080fd5b5061031e610d8c565b60405161032b9190610ee9565b60405180910390f35b34801561034057600080fd5b50610349610d92565b6040516103569190610ee9565b60405180910390f35b60006020528060005260406000206000915090505481565b60065481565b600260009054906101000a900473ffffffffffffffffffffffffffffffffffffffff1673ffffffffffffffffffffffffffffffffffffffff163373ffffffffffffffffffffffffffffffffffffffff161461040d576040517f08c379a000000000000000000000000000000000000000000000000000000000815260040161040490611207565b60405180910390fd5b600060016000600454815260200190815260200160002090506004600081548092919061043990611256565b91905055508484826000019190610451929190610d98565b50828160010160006101000a81548173ffffffffffffffffffffffffffffffffffffffff021916908373ffffffffffffffffffffffffffffffffffffffff16021790555081816002018190555060008160030160006101000a81548160ff021916908315150217905550600081600401819055505050505050565b600260009054906101000a900473ffffffffffffffffffffffffffffffffffffffff1681565b60008060003373ffffffffffffffffffffffffffffffffffffffff1673ffffffffffffffffffffffffffffffffffffffff1681526020019081526020016000205411610573576040517f08c379a000000000000000000000000000000000000000000000000000000000815260040161056a906112ea565b60405180910390fd5b60045481106105b7576040517f08c379a00000000000000000000000000000000000000000000000000000000081526004016105ae90611356565b60405180910390fd5b6000600160008381526020019081526020016000209050600015158160050160003373ffffffffffffffffffffffffffffffffffffffff1673ffffffffffffffffffffffffffffffffffffffff16815260200190815260200160002060009054906101000a900460ff16151514610663576040517f08c379a000000000000000000000000000000000000000000000000000000000815260040161065a906113c2565b60405180910390fd5b60018160050160003373ffffffffffffffffffffffffffffffffffffffff1673ffffffffffffffffffffffffffffffffffffffff16815260200190815260200160002060006101000a81548160ff0219169083151502179055508060040160008154809291906106d290611256565b91905055505050565b60055481565b6006544210610725576040517f08c379a000000000000000000000000000000000000000000000000000000000815260040161071c9061142e565b60405180910390fd5b60085434101561076a576040517f08c379a0000000000000000000000000000000000000000000000000000000008152600401610761906114c0565b60405180910390fd5b60008060003373ffffffffffffffffffffffffffffffffffffffff1673ffffffffffffffffffffffffffffffffffffffff16815260200190815260200160002054036107c957600560008154809291906107c390611256565b91905055505b346000803373ffffffffffffffffffffffffffffffffffffffff1673ffffffffffffffffffffffffffffffffffffffff168152602001908152602001600020600082825461081791906114e0565b92505081905550346007600082825461083091906114e0565b92505081905550565b600260009054906101000a900473ffffffffffffffffffffffffffffffffffffffff1673ffffffffffffffffffffffffffffffffffffffff163373ffffffffffffffffffffffffffffffffffffffff16146108c9576040517f08c379a00000000000000000000000000000000000000000000000000000000081526004016108c090611207565b60405180910390fd5b6003546007541015610910576040517f08c379a000000000000000000000000000000000000000000000000000000000815260040161090790611582565b60405180910390fd5b6004548110610954576040517f08c379a000000000000000000000000000000000000000000000000000000000815260040161094b90611356565b60405180910390fd5b6000600160008381526020019081526020016000209050600015158160030160009054906101000a900460ff161515146109c3576040517f08c379a00000000000000000000000000000000000000000000000000000000081526004016109ba906115ee565b60405180910390fd5b60026005546109d2919061163d565b816004015411610a17576040517f08c379a0000000000000000000000000000000000000000000000000000000008152600401610a0e906116e0565b60405180910390fd5b8060020154471015610a5e576040517f08c379a0000000000000000000000000000000000000000000000000000000008152600401610a559061174c565b60405180910390fd5b8060010160009054906101000a900473ffffffffffffffffffffffffffffffffffffffff1673ffffffffffffffffffffffffffffffffffffffff166108fc82600201549081150290604051600060405180830381858888f19350505050158015610acc573d6000803e3d6000fd5b5060018160030160006101000a81548160ff0219169083151502179055505050565b60065442118015610b025750600354600754105b610b41576040517f08c379a0000000000000000000000000000000000000000000000000000000008152600401610b38906117de565b60405180910390fd5b60008060003373ffffffffffffffffffffffffffffffffffffffff1673ffffffffffffffffffffffffffffffffffffffff1681526020019081526020016000205411610bc2576040517f08c379a0000000000000000000000000000000000000000000000000000000008152600401610bb9906112ea565b60405180910390fd5b3373ffffffffffffffffffffffffffffffffffffffff166108fc6000803373ffffffffffffffffffffffffffffffffffffffff1673ffffffffffffffffffffffffffffffffffffffff168152602001908152602001600020549081150290604051600060405180830381858888f19350505050158015610c46573d6000803e3d6000fd5b5060008060003373ffffffffffffffffffffffffffffffffffffffff1673ffffffffffffffffffffffffffffffffffffffff16815260200190815260200160002081905550565b600047905090565b6001602052806000526040600020600091509050806000018054610cb89061182d565b80601f0160208091040260200160405190810160405280929190818152602001828054610ce49061182d565b8015610d315780601f10610d0657610100808354040283529160200191610d31565b820191906000526020600020905b815481529060010190602001808311610d1457829003601f168201915b5050505050908060010160009054906101000a900473ffffffffffffffffffffffffffffffffffffffff16908060020154908060030160009054906101000a900460ff16908060040154905085565b60085481565b60045481565b60075481565b60035481565b828054610da49061182d565b90600052602060002090601f016020900481019282610dc65760008555610e0d565b82601f10610ddf57803560ff1916838001178555610e0d565b82800160010185558215610e0d579182015b82811115610e0c578235825591602001919060010190610df1565b5b509050610e1a9190610e1e565b5090565b5b80821115610e37576000816000905550600101610e1f565b5090565b600080fd5b600080fd5b600073ffffffffffffffffffffffffffffffffffffffff82169050919050565b6000610e7082610e45565b9050919050565b610e8081610e65565b8114610e8b57600080fd5b50565b600081359050610e9d81610e77565b92915050565b600060208284031215610eb957610eb8610e3b565b5b6000610ec784828501610e8e565b91505092915050565b6000819050919050565b610ee381610ed0565b82525050565b6000602082019050610efe6000830184610eda565b92915050565b600080fd5b600080fd5b600080fd5b60008083601f840112610f2957610f28610f04565b5b8235905067ffffffffffffffff811115610f4657610f45610f09565b5b602083019150836001820283011115610f6257610f61610f0e565b5b9250929050565b6000610f7482610e45565b9050919050565b610f8481610f69565b8114610f8f57600080fd5b50565b600081359050610fa181610f7b565b92915050565b610fb081610ed0565b8114610fbb57600080fd5b50565b600081359050610fcd81610fa7565b92915050565b60008060008060608587031215610fed57610fec610e3b565b5b600085013567ffffffffffffffff81111561100b5761100a610e40565b5b61101787828801610f13565b9450945050602061102a87828801610f92565b925050604061103b87828801610fbe565b91505092959194509250565b61105081610e65565b82525050565b600060208201905061106b6000830184611047565b92915050565b60006020828403121561108757611086610e3b565b5b600061109584828501610fbe565b91505092915050565b600081519050919050565b600082825260208201905092915050565b60005b838110156110d85780820151818401526020810190506110bd565b838111156110e7576000848401525b50505050565b6000601f19601f8301169050919050565b60006111098261109e565b61111381856110a9565b93506111238185602086016110ba565b61112c816110ed565b840191505092915050565b61114081610f69565b82525050565b60008115159050919050565b61115b81611146565b82525050565b600060a082019050818103600083015261117b81886110fe565b905061118a6020830187611137565b6111976040830186610eda565b6111a46060830185611152565b6111b16080830184610eda565b9695505050505050565b7f596f7520617265206e6f7420746865206d616e61676572000000000000000000600082015250565b60006111f16017836110a9565b91506111fc826111bb565b602082019050919050565b60006020820190508181036000830152611220816111e4565b9050919050565b7f4e487b7100000000000000000000000000000000000000000000000000000000600052601160045260246000fd5b600061126182610ed0565b91507fffffffffffffffffffffffffffffffffffffffffffffffffffffffffffffffff820361129357611292611227565b5b600182019050919050565b7f596f7520617265206e6f74206120636f6e7472696275746f7200000000000000600082015250565b60006112d46019836110a9565b91506112df8261129e565b602082019050919050565b60006020820190508181036000830152611303816112c7565b9050919050565b7f496e76616c69642072657175657374206e756d62657200000000000000000000600082015250565b60006113406016836110a9565b915061134b8261130a565b602082019050919050565b6000602082019050818103600083015261136f81611333565b9050919050565b7f596f75206861766520616c726561647920766f74656400000000000000000000600082015250565b60006113ac6016836110a9565b91506113b782611376565b602082019050919050565b600060208201905081810360008301526113db8161139f565b9050919050565b7f446561646c696e65206861732070617373656400000000000000000000000000600082015250565b60006114186013836110a9565b9150611423826113e2565b602082019050919050565b600060208201905081810360008301526114478161140b565b9050919050565b7f4d696e696d756d20636f6e747269627574696f6e20726571756972656420697360008201527f2031303020776569000000000000000000000000000000000000000000000000602082015250565b60006114aa6028836110a9565b91506114b58261144e565b604082019050919050565b600060208201905081810360008301526114d98161149d565b9050919050565b60006114eb82610ed0565b91506114f683610ed0565b9250827fffffffffffffffffffffffffffffffffffffffffffffffffffffffffffffffff0382111561152b5761152a611227565b5b828201905092915050565b7f54617267657420616d6f756e74206973206e6f74207265636569766564000000600082015250565b600061156c601d836110a9565b915061157782611536565b602082019050919050565b6000602082019050818103600083015261159b8161155f565b9050919050565b7f546865207265717565737420686173206265656e20636f6d706c657465640000600082015250565b60006115d8601e836110a9565b91506115e3826115a2565b602082019050919050565b60006020820190508181036000830152611607816115cb565b9050919050565b7f4e487b7100000000000000000000000000000000000000000000000000000000600052601260045260246000fd5b600061164882610ed0565b915061165383610ed0565b9250826116635761166261160e565b5b828204905092915050565b7f4d616a6f7269747920646f6573206e6f7420737570706f72742074686520726560008201527f7175657374000000000000000000000000000000000000000000000000000000602082015250565b60006116ca6025836110a9565b91506116d58261166e565b604082019050919050565b600060208201905081810360008301526116f9816116bd565b9050919050565b7f496e73756666696369656e7420636f6e74726163742062616c616e6365000000600082015250565b6000611736601d836110a9565b915061174182611700565b602082019050919050565b6000602082019050818103600083015261176581611729565b9050919050565b7f596f7520617265206e6f7420656c696769626c6520666f72206120726566756e60008201527f6400000000000000000000000000000000000000000000000000000000000000602082015250565b60006117c86021836110a9565b91506117d38261176c565b604082019050919050565b600060208201905081810360008301526117f7816117bb565b9050919050565b7f4e487b7100000000000000000000000000000000000000000000000000000000600052602260045260246000fd5b6000600282049050600182168061184557607f821691505b602082108103611858576118576117fe565b5b5091905056fea2646970667358221220a8bac8e3063bcecd092ef546f19a7259f436ae3b61f5d788dce94ab197652c8364736f6c634300080d0033",
  "immutableReferences": {},
  "source": "pragma solidity >=0.4.22 <0.9.0;\n// SPDX-License-Identifier: MIT\n\ncontract Crowdfunding {\n    struct Request {\n        string description;\n        address payable recipient;\n        uint value;\n        bool completed;\n        uint noOfVoters;\n        mapping(address => bool) voters;\n    }\n\n    mapping(address => uint) public contributors;\n    mapping(uint => Request) public requests;\n    address public manager;\n    uint public target;\n    uint public noOfRequests;\n    uint public noOfContributors;\n    uint public deadline;\n    uint public raisedAmount;\n    uint public minContribution;\n\n    constructor(uint _target, uint _deadline) {\n        target = _target;\n        deadline = block.timestamp + _deadline;\n        minContribution = 100 wei;\n        manager = msg.sender;\n    }\n\n    modifier onlyManager() {\n        require(msg.sender == manager, \"You are not the manager\");\n        _;\n    }\n\n    function createRequests(string calldata _description, address payable _recipient, uint _value) public onlyManager {\n        Request storage newRequest = requests[noOfRequests];\n        noOfRequests++;\n        newRequest.description = _description;\n        newRequest.recipient = _recipient;\n        newRequest.value = _value;\n        newRequest.completed = false;\n        newRequest.noOfVoters = 0;\n    }\n\n    function contribution() public payable {\n        require(block.timestamp < deadline, \"Deadline has passed\");\n        require(msg.value >= minContribution, \"Minimum contribution required is 100 wei\");\n\n        if (contributors[msg.sender] == 0) {\n            noOfContributors++;\n        }\n        contributors[msg.sender] += msg.value;\n        raisedAmount += msg.value;\n    }\n\n    function getContractBalance() public view returns(uint) {\n        return address(this).balance;\n    }\n\n    function refund() public {\n        require(block.timestamp > deadline && raisedAmount < target, \"You are not eligible for a refund\");\n        require(contributors[msg.sender] > 0, \"You are not a contributor\");\n        payable(msg.sender).transfer(contributors[msg.sender]);\n        contributors[msg.sender] = 0;\n    }\n\n    function voteRequest(uint _requestNo) public {\n        require(contributors[msg.sender] > 0, \"You are not a contributor\");\n        require(_requestNo < noOfRequests, \"Invalid request number\");\n        Request storage thisRequest = requests[_requestNo];\n        require(thisRequest.voters[msg.sender] == false, \"You have already voted\");\n        thisRequest.voters[msg.sender] = true;\n        thisRequest.noOfVoters++;\n    }\n\n    function makePayment(uint _requestNo) public onlyManager {\n        require(raisedAmount >= target, \"Target amount is not received\");\n        require(_requestNo < noOfRequests, \"Invalid request number\");\n        Request storage thisRequest = requests[_requestNo];\n        require(thisRequest.completed == false, \"The request has been completed\");\n        require(thisRequest.noOfVoters > noOfContributors / 2, \"Majority does not support the request\");\n        require(address(this).balance >= thisRequest.value, \"Insufficient contract balance\");\n        \n        thisRequest.recipient.transfer(thisRequest.value);\n        thisRequest.completed = true;\n    }\n}\n\n",
  "sourcePath": "/home/alvin/Projects/trustfunds/repo/web3-trustfunds/contracts/Crowdfunding.sol",
  "compiler": {
    "name": "solc",
    "version": "0.8.13+commit.abaa5c0e.Emscripten.clang"
  },
  "schemaVersion": "3.4.16",
  "updatedAt": "2024-03-31T12:15:27.729Z",
  "networkType": "ethereum",
  "devdoc": {
    "kind": "dev",
    "methods": {},
    "version": 1
  },
  "userdoc": {
    "kind": "user",
    "methods": {},
    "version": 1
  }
}