{
  "contractName": "Crowdfunding",
  "abi": [
    {
      "inputs": [
        {
          "internalType": "string",
          "name": "",
          "type": "string"
        }
      ],
      "name": "campaignMongoId",
      "outputs": [
        {
          "internalType": "uint256",
          "name": "",
          "type": "uint256"
        }
      ],
      "stateMutability": "view",
      "type": "function",
      "constant": true
    },
    {
      "inputs": [
        {
          "internalType": "uint256",
          "name": "",
          "type": "uint256"
        }
      ],
      "name": "campaigns",
      "outputs": [
        {
          "internalType": "address payable",
          "name": "recipient",
          "type": "address"
        },
        {
          "internalType": "uint256",
          "name": "targetAmount",
          "type": "uint256"
        },
        {
          "internalType": "uint256",
          "name": "deadline",
          "type": "uint256"
        },
        {
          "internalType": "uint256",
          "name": "totalRaised",
          "type": "uint256"
        },
        {
          "internalType": "bool",
          "name": "completed",
          "type": "bool"
        },
        {
          "internalType": "uint256",
          "name": "numberOfContributors",
          "type": "uint256"
        }
      ],
      "stateMutability": "view",
      "type": "function",
      "constant": true
    },
    {
      "inputs": [],
      "name": "nextCampaignId",
      "outputs": [
        {
          "internalType": "uint256",
          "name": "",
          "type": "uint256"
        }
      ],
      "stateMutability": "view",
      "type": "function",
      "constant": true
    },
    {
      "inputs": [
        {
          "internalType": "string",
          "name": "mongoId",
          "type": "string"
        },
        {
          "internalType": "address payable",
          "name": "_recipient",
          "type": "address"
        },
        {
          "internalType": "uint256",
          "name": "_targetAmount",
          "type": "uint256"
        },
        {
          "internalType": "uint256",
          "name": "_deadline",
          "type": "uint256"
        },
        {
          "internalType": "uint256[]",
          "name": "milestoneDeadlines",
          "type": "uint256[]"
        },
        {
          "internalType": "uint256[]",
          "name": "milestoneCompletionPercentages",
          "type": "uint256[]"
        }
      ],
      "name": "createCampaign",
      "outputs": [],
      "stateMutability": "nonpayable",
      "type": "function"
    },
    {
      "inputs": [
        {
          "internalType": "string",
          "name": "mongoId",
          "type": "string"
        }
      ],
      "name": "contributeToCampaign",
      "outputs": [],
      "stateMutability": "payable",
      "type": "function",
      "payable": true
    },
    {
      "inputs": [
        {
          "internalType": "string",
          "name": "mongoId",
          "type": "string"
        },
        {
          "internalType": "address",
          "name": "senderAddress",
          "type": "address"
        }
      ],
      "name": "getContributionAmount",
      "outputs": [
        {
          "internalType": "uint256",
          "name": "",
          "type": "uint256"
        }
      ],
      "stateMutability": "view",
      "type": "function",
      "constant": true
    },
    {
      "inputs": [
        {
          "internalType": "string",
          "name": "mongoId",
          "type": "string"
        }
      ],
      "name": "vote",
      "outputs": [],
      "stateMutability": "nonpayable",
      "type": "function"
    },
    {
      "inputs": [
        {
          "internalType": "string",
          "name": "mongoId",
          "type": "string"
        }
      ],
      "name": "isMajorityInFavor",
      "outputs": [
        {
          "internalType": "bool",
          "name": "",
          "type": "bool"
        }
      ],
      "stateMutability": "view",
      "type": "function",
      "constant": true
    },
    {
      "inputs": [
        {
          "internalType": "string",
          "name": "mongoId",
          "type": "string"
        }
      ],
      "name": "finalizeMilestoneAndDisburseFunds",
      "outputs": [],
      "stateMutability": "payable",
      "type": "function",
      "payable": true
    }
  ],
  "bytecode": "0x608060405234801561001057600080fd5b506119df806100206000396000f3fe6080604052600436106100865760003560e01c806342d6f3911161005957806342d6f3911461014f57806378f5a8e01461018c5780637903a756146101a8578063999a3407146101d3578063fc36e15b1461021057610086565b80630c8209e21461008b578063141961bc146100a757806325405ef5146100e957806339f8bd6714610126575b600080fd5b6100a560048036038101906100a09190610fa8565b610239565b005b3480156100b357600080fd5b506100ce60048036038101906100c99190611027565b61040a565b6040516100e0969594939291906110bf565b60405180910390f35b3480156100f557600080fd5b50610110600480360381019061010b9190610fa8565b610473565b60405161011d9190611120565b60405180910390f35b34801561013257600080fd5b5061014d6004803603810190610148919061122f565b6105c4565b005b34801561015b57600080fd5b5061017660048036038101906101719190610fa8565b6107f8565b6040516101839190611310565b60405180910390f35b6101a660048036038101906101a19190610fa8565b610826565b005b3480156101b457600080fd5b506101bd610bcb565b6040516101ca9190611310565b60405180910390f35b3480156101df57600080fd5b506101fa60048036038101906101f59190611369565b610bd1565b6040516102079190611310565b60405180910390f35b34801561021c57600080fd5b5061023760048036038101906102329190610fa8565b610c51565b005b600060018260405161024b919061143f565b90815260200160405180910390205490506000808281526020019081526020016000206002015442106102b3576040517f08c379a00000000000000000000000000000000000000000000000000000000081526004016102aa906114b3565b60405180910390fd5b6000806000838152602001908152602001600020905060008160050160003373ffffffffffffffffffffffffffffffffffffffff1673ffffffffffffffffffffffffffffffffffffffff16815260200190815260200160002054036103925780600601339080600181540180825580915050600190039060005260206000200160009091909190916101000a81548173ffffffffffffffffffffffffffffffffffffffff021916908373ffffffffffffffffffffffffffffffffffffffff16021790555080600801600081548092919061038c90611502565b91905055505b348160050160003373ffffffffffffffffffffffffffffffffffffffff1673ffffffffffffffffffffffffffffffffffffffff16815260200190815260200160002060008282546103e3919061154a565b92505081905550348160030160008282546103fe919061154a565b92505081905550505050565b60006020528060005260406000206000915090508060000160009054906101000a900473ffffffffffffffffffffffffffffffffffffffff16908060010154908060020154908060030154908060040160009054906101000a900460ff16908060080154905086565b600080600183604051610486919061143f565b90815260200160405180910390205490506000805b6000808481526020019081526020016000206008015481101561059657600080600085815260200190815260200160002060060182815481106104e1576104e06115a0565b5b9060005260206000200160009054906101000a900473ffffffffffffffffffffffffffffffffffffffff16905060008085815260200190815260200160002060070160008273ffffffffffffffffffffffffffffffffffffffff1673ffffffffffffffffffffffffffffffffffffffff16815260200190815260200160002060009054906101000a900460ff161561058257828061057e90611502565b9350505b50808061058e90611502565b91505061049b565b50600080838152602001908152602001600020600801546002826105ba91906115cf565b1192505050919050565b60008411610607576040517f08c379a00000000000000000000000000000000000000000000000000000000081526004016105fe9061169b565b60405180910390fd5b428311610649576040517f08c379a000000000000000000000000000000000000000000000000000000000815260040161064090611707565b60405180910390fd5b600080600060025481526020019081526020016000209050858160000160006101000a81548173ffffffffffffffffffffffffffffffffffffffff021916908373ffffffffffffffffffffffffffffffffffffffff1602179055508481600101819055508381600201819055506000816003018190555060008160040160006101000a81548160ff02191690831515021790555060005b83518110156107b15781600901604051806060016040528086848151811061070b5761070a6115a0565b5b6020026020010151815260200185848151811061072b5761072a6115a0565b5b60200260200101518152602001600015158152509080600181540180825580915050600190039060005260206000209060030201600090919091909150600082015181600001556020820151816001015560408201518160020160006101000a81548160ff021916908315150217905550505080806107a990611502565b9150506106e0565b506002546001886040516107c5919061143f565b908152602001604051809103902081905550600260008154809291906107ea90611502565b919050555050505050505050565b6001818051602081018201805184825260208301602085012081835280955050505050506000915090505481565b6000600182604051610838919061143f565b9081526020016040518091039020549050600080828152602001908152602001600020600201544210156108a1576040517f08c379a000000000000000000000000000000000000000000000000000000000815260040161089890611799565b60405180910390fd5b600080600083815260200190815260200160002090508060040160009054906101000a900460ff1615610909576040517f08c379a000000000000000000000000000000000000000000000000000000000815260040161090090611805565b60405180910390fd5b600081600101549050600082600301549050818110610a905760005b8360090180549050811015610a8a57600084600901828154811061094c5761094b6115a0565b5b906000526020600020906003020190508060020160009054906101000a900460ff1615801561097f575080600001544210155b15610a765760018160020160006101000a81548160ff0219169083151502179055506109aa87610473565b6109e9576040517f08c379a00000000000000000000000000000000000000000000000000000000081526004016109e090611897565b60405180910390fd5b600060648260010154866109fd91906115cf565b610a0791906118e6565b90508560000160009054906101000a900473ffffffffffffffffffffffffffffffffffffffff1673ffffffffffffffffffffffffffffffffffffffff166108fc829081150290604051600060405180830381858888f19350505050158015610a73573d6000803e3d6000fd5b50505b508080610a8290611502565b915050610925565b50610ba7565b60005b8360060180549050811015610ba5576000846006018281548110610aba57610ab96115a0565b5b9060005260206000200160009054906101000a900473ffffffffffffffffffffffffffffffffffffffff16905060008560050160008373ffffffffffffffffffffffffffffffffffffffff1673ffffffffffffffffffffffffffffffffffffffff1681526020019081526020016000205490506000858583610b3c91906115cf565b610b4691906118e6565b90508273ffffffffffffffffffffffffffffffffffffffff166108fc829081150290604051600060405180830381858888f19350505050158015610b8e573d6000803e3d6000fd5b505050508080610b9d90611502565b915050610a93565b505b60018360040160006101000a81548160ff0219169083151502179055505050505050565b60025481565b600080600184604051610be4919061143f565b908152602001604051809103902054905060008082815260200190815260200160002060050160008473ffffffffffffffffffffffffffffffffffffffff1673ffffffffffffffffffffffffffffffffffffffff1681526020019081526020016000205491505092915050565b6000600182604051610c63919061143f565b9081526020016040518091039020549050600080600083815260200190815260200160002060050160003373ffffffffffffffffffffffffffffffffffffffff1673ffffffffffffffffffffffffffffffffffffffff1681526020019081526020016000205411610d09576040517f08c379a0000000000000000000000000000000000000000000000000000000008152600401610d0090611989565b60405180910390fd5b60008082815260200190815260200160002060070160003373ffffffffffffffffffffffffffffffffffffffff1673ffffffffffffffffffffffffffffffffffffffff16815260200190815260200160002060009054906101000a900460ff1615610dde57600080600083815260200190815260200160002060070160003373ffffffffffffffffffffffffffffffffffffffff1673ffffffffffffffffffffffffffffffffffffffff16815260200190815260200160002060006101000a81548160ff021916908315150217905550610e4a565b600160008083815260200190815260200160002060070160003373ffffffffffffffffffffffffffffffffffffffff1673ffffffffffffffffffffffffffffffffffffffff16815260200190815260200160002060006101000a81548160ff0219169083151502179055505b5050565b6000604051905090565b600080fd5b600080fd5b600080fd5b600080fd5b6000601f19601f8301169050919050565b7f4e487b7100000000000000000000000000000000000000000000000000000000600052604160045260246000fd5b610eb582610e6c565b810181811067ffffffffffffffff82111715610ed457610ed3610e7d565b5b80604052505050565b6000610ee7610e4e565b9050610ef38282610eac565b919050565b600067ffffffffffffffff821115610f1357610f12610e7d565b5b610f1c82610e6c565b9050602081019050919050565b82818337600083830152505050565b6000610f4b610f4684610ef8565b610edd565b905082815260208101848484011115610f6757610f66610e67565b5b610f72848285610f29565b509392505050565b600082601f830112610f8f57610f8e610e62565b5b8135610f9f848260208601610f38565b91505092915050565b600060208284031215610fbe57610fbd610e58565b5b600082013567ffffffffffffffff811115610fdc57610fdb610e5d565b5b610fe884828501610f7a565b91505092915050565b6000819050919050565b61100481610ff1565b811461100f57600080fd5b50565b60008135905061102181610ffb565b92915050565b60006020828403121561103d5761103c610e58565b5b600061104b84828501611012565b91505092915050565b600073ffffffffffffffffffffffffffffffffffffffff82169050919050565b600061107f82611054565b9050919050565b61108f81611074565b82525050565b61109e81610ff1565b82525050565b60008115159050919050565b6110b9816110a4565b82525050565b600060c0820190506110d46000830189611086565b6110e16020830188611095565b6110ee6040830187611095565b6110fb6060830186611095565b61110860808301856110b0565b61111560a0830184611095565b979650505050505050565b600060208201905061113560008301846110b0565b92915050565b61114481611074565b811461114f57600080fd5b50565b6000813590506111618161113b565b92915050565b600067ffffffffffffffff82111561118257611181610e7d565b5b602082029050602081019050919050565b600080fd5b60006111ab6111a684611167565b610edd565b905080838252602082019050602084028301858111156111ce576111cd611193565b5b835b818110156111f757806111e38882611012565b8452602084019350506020810190506111d0565b5050509392505050565b600082601f83011261121657611215610e62565b5b8135611226848260208601611198565b91505092915050565b60008060008060008060c0878903121561124c5761124b610e58565b5b600087013567ffffffffffffffff81111561126a57611269610e5d565b5b61127689828a01610f7a565b965050602061128789828a01611152565b955050604061129889828a01611012565b94505060606112a989828a01611012565b935050608087013567ffffffffffffffff8111156112ca576112c9610e5d565b5b6112d689828a01611201565b92505060a087013567ffffffffffffffff8111156112f7576112f6610e5d565b5b61130389828a01611201565b9150509295509295509295565b60006020820190506113256000830184611095565b92915050565b600061133682611054565b9050919050565b6113468161132b565b811461135157600080fd5b50565b6000813590506113638161133d565b92915050565b600080604083850312156113805761137f610e58565b5b600083013567ffffffffffffffff81111561139e5761139d610e5d565b5b6113aa85828601610f7a565b92505060206113bb85828601611354565b9150509250929050565b600081519050919050565b600081905092915050565b60005b838110156113f95780820151818401526020810190506113de565b83811115611408576000848401525b50505050565b6000611419826113c5565b61142381856113d0565b93506114338185602086016113db565b80840191505092915050565b600061144b828461140e565b915081905092915050565b600082825260208201905092915050565b7f436f6e747269627574696f6e20706572696f642068617320656e646564000000600082015250565b600061149d601d83611456565b91506114a882611467565b602082019050919050565b600060208201905081810360008301526114cc81611490565b9050919050565b7f4e487b7100000000000000000000000000000000000000000000000000000000600052601160045260246000fd5b600061150d82610ff1565b91507fffffffffffffffffffffffffffffffffffffffffffffffffffffffffffffffff820361153f5761153e6114d3565b5b600182019050919050565b600061155582610ff1565b915061156083610ff1565b9250827fffffffffffffffffffffffffffffffffffffffffffffffffffffffffffffffff03821115611595576115946114d3565b5b828201905092915050565b7f4e487b7100000000000000000000000000000000000000000000000000000000600052603260045260246000fd5b60006115da82610ff1565b91506115e583610ff1565b9250817fffffffffffffffffffffffffffffffffffffffffffffffffffffffffffffffff048311821515161561161e5761161d6114d3565b5b828202905092915050565b7f54617267657420616d6f756e74206d757374206265206772656174657220746860008201527f616e207a65726f00000000000000000000000000000000000000000000000000602082015250565b6000611685602783611456565b915061169082611629565b604082019050919050565b600060208201905081810360008301526116b481611678565b9050919050565b7f446561646c696e65206d75737420626520696e20746865206675747572650000600082015250565b60006116f1601e83611456565b91506116fc826116bb565b602082019050919050565b60006020820190508181036000830152611720816116e4565b9050919050565b7f446561646c696e6520686173206e6f74206265656e207265616368656420796560008201527f7400000000000000000000000000000000000000000000000000000000000000602082015250565b6000611783602183611456565b915061178e82611727565b604082019050919050565b600060208201905081810360008301526117b281611776565b9050919050565b7f43616d706169676e20616c726561647920636f6d706c65746564000000000000600082015250565b60006117ef601a83611456565b91506117fa826117b9565b602082019050919050565b6000602082019050818103600083015261181e816117e2565b9050919050565b7f4d616a6f72697479206f662074686520636f6e7472696275746f72732061726560008201527f20756e6861707079207769746820746869732063616d706169676e0000000000602082015250565b6000611881603b83611456565b915061188c82611825565b604082019050919050565b600060208201905081810360008301526118b081611874565b9050919050565b7f4e487b7100000000000000000000000000000000000000000000000000000000600052601260045260246000fd5b60006118f182610ff1565b91506118fc83610ff1565b92508261190c5761190b6118b7565b5b828204905092915050565b7f596f75206d757374206265206120636f6e7472696275746f7220746f20766f7460008201527f6500000000000000000000000000000000000000000000000000000000000000602082015250565b6000611973602183611456565b915061197e82611917565b604082019050919050565b600060208201905081810360008301526119a281611966565b905091905056fea2646970667358221220e328b1dfd06eec39c9eee024691d3436b5be07589df0f411d06f5b77450e251164736f6c634300080d0033",
  "immutableReferences": {},
  "source": "// SPDX-License-Identifier: MIT\npragma solidity ^0.8.0;\n\ncontract Crowdfunding {\n  struct Milestone {\n    uint256 deadline;\n    uint256 completionPercentage;\n    bool reached;\n  }\n\n  struct Campaign {\n    address payable recipient;\n    uint256 targetAmount;\n    uint256 deadline;\n    uint256 totalRaised;\n    bool completed;\n    mapping(address => uint256) contributions;\n    address[] contributorAddresses;\n    mapping(address => bool) voted;\n    uint256 numberOfContributors;\n    Milestone[] milestones;\n  }\n\n  mapping(uint256 => Campaign) public campaigns;\n  mapping(string => uint256) public campaignMongoId;\n  uint256 public nextCampaignId;\n\n  function createCampaign(\n    string memory mongoId,\n    address payable _recipient,\n    uint256 _targetAmount,\n    uint256 _deadline,\n    uint256[] memory milestoneDeadlines,\n    uint256[] memory milestoneCompletionPercentages\n  ) public {\n    require(_targetAmount > 0, \"Target amount must be greater than zero\");\n    require(_deadline > block.timestamp, \"Deadline must be in the future\");\n\n    Campaign storage currentCampaign = campaigns[nextCampaignId];\n    currentCampaign.recipient = _recipient;\n    currentCampaign.targetAmount = _targetAmount;\n    currentCampaign.deadline = _deadline;\n    currentCampaign.totalRaised = 0;\n    currentCampaign.completed = false;\n\n    for (uint256 i = 0; i < milestoneDeadlines.length; i++) {\n      currentCampaign.milestones.push(\n        Milestone({\n          deadline: milestoneDeadlines[i],\n          completionPercentage: milestoneCompletionPercentages[i],\n          reached: false\n        })\n      );\n    }\n\n    campaignMongoId[mongoId] = nextCampaignId;\n    nextCampaignId++;\n  }\n\n  function contributeToCampaign(string memory mongoId) public payable {\n    uint256 campaignId = campaignMongoId[mongoId];\n    require(\n      block.timestamp < campaigns[campaignId].deadline,\n      \"Contribution period has ended\"\n    );\n\n    Campaign storage currentCampaign = campaigns[campaignId];\n    if (currentCampaign.contributions[msg.sender] == 0) {\n      currentCampaign.contributorAddresses.push(msg.sender);\n      currentCampaign.numberOfContributors++;\n    }\n    currentCampaign.contributions[msg.sender] += msg.value;\n    currentCampaign.totalRaised += msg.value;\n  }\n\n  function getContributionAmount(\n    string memory mongoId,\n    address senderAddress\n  ) public view returns (uint256) {\n    uint256 campaignId = campaignMongoId[mongoId];\n    return campaigns[campaignId].contributions[senderAddress];\n  }\n\n  function vote(string memory mongoId) public {\n    uint256 campaignId = campaignMongoId[mongoId];\n    require(\n      campaigns[campaignId].contributions[msg.sender] > 0,\n      \"You must be a contributor to vote\"\n    );\n\n    if (campaigns[campaignId].voted[msg.sender]) {\n      campaigns[campaignId].voted[msg.sender] = false;\n    } else {\n      campaigns[campaignId].voted[msg.sender] = true;\n    }\n  }\n\n  function isMajorityInFavor(string memory mongoId) public view returns (bool) {\n    uint256 campaignId = campaignMongoId[mongoId];\n    uint256 votedContributorsCount = 0;\n\n    for (uint256 i = 0; i < campaigns[campaignId].numberOfContributors; i++) {\n      address contributor = campaigns[campaignId].contributorAddresses[i];\n      if (campaigns[campaignId].voted[contributor]) {\n        votedContributorsCount++;\n      }\n    }\n\n    return (votedContributorsCount * 2 >\n      campaigns[campaignId].numberOfContributors);\n  }\n\n  function finalizeMilestoneAndDisburseFunds(\n    string memory mongoId\n  ) public payable {\n    uint256 campaignId = campaignMongoId[mongoId];\n    require(\n      block.timestamp >= campaigns[campaignId].deadline,\n      \"Deadline has not been reached yet\"\n    );\n\n    Campaign storage currentCampaign = campaigns[campaignId];\n    require(!currentCampaign.completed, \"Campaign already completed\");\n\n    uint256 goalAmount = currentCampaign.targetAmount;\n    uint256 totalRaised = currentCampaign.totalRaised;\n\n    if (totalRaised >= goalAmount) {\n      for (uint256 i = 0; i < currentCampaign.milestones.length; i++) {\n        Milestone storage milestone = currentCampaign.milestones[i];\n        if (!milestone.reached && block.timestamp >= milestone.deadline) {\n          milestone.reached = true;\n          require(\n            isMajorityInFavor(mongoId),\n            \"Majority of the contributors are unhappy with this campaign\"\n          );\n          uint256 amountToTransfer = (goalAmount *\n            milestone.completionPercentage) / 100;\n          currentCampaign.recipient.transfer(amountToTransfer);\n        }\n      }\n    } else {\n      for (\n        uint256 i = 0;\n        i < currentCampaign.contributorAddresses.length;\n        i++\n      ) {\n        address contributor = currentCampaign.contributorAddresses[i];\n        uint256 contribution = currentCampaign.contributions[contributor];\n        uint256 refundAmount = (contribution * totalRaised) / goalAmount;\n        payable(contributor).transfer(refundAmount);\n      }\n    }\n\n    currentCampaign.completed = true;\n  }\n}\n",
  "sourcePath": "/home/alvin/Projects/trustfunds/repo/trustfunds-api/web3-trustfunds/contracts/Crowdfunding.sol",
  "compiler": {
    "name": "solc",
    "version": "0.8.13+commit.abaa5c0e.Emscripten.clang"
  },
  "schemaVersion": "3.4.16",
  "updatedAt": "2024-04-17T06:04:08.426Z",
  "networkType": "ethereum",
  "devdoc": {
    "kind": "dev",
    "methods": {},
    "version": 1
  },
  "userdoc": {
    "kind": "user",
    "methods": {},
    "version": 1
  }
}